{
  "_format": "hh-sol-artifact-1",
  "contractName": "LettersToKoKoYe",
  "sourceName": "contracts/LettersToKoKoYe.sol",
  "abi": [
    {
      "inputs": [],
      "stateMutability": "nonpayable",
      "type": "constructor"
    },
    {
      "anonymous": false,
      "inputs": [
        {
          "indexed": false,
          "internalType": "bool",
          "name": "limitOnePerWallet",
          "type": "bool"
        }
      ],
      "name": "LimitToggled",
      "type": "event"
    },
    {
      "anonymous": false,
      "inputs": [
        {
          "indexed": true,
          "internalType": "uint256",
          "name": "ticketNumber",
          "type": "uint256"
        },
        {
          "indexed": true,
          "internalType": "address",
          "name": "sender",
          "type": "address"
        },
        {
          "indexed": false,
          "internalType": "string",
          "name": "text",
          "type": "string"
        },
        {
          "indexed": false,
          "internalType": "uint256",
          "name": "timestamp",
          "type": "uint256"
        }
      ],
      "name": "MessageWritten",
      "type": "event"
    },
    {
      "anonymous": false,
      "inputs": [
        {
          "indexed": true,
          "internalType": "address",
          "name": "previousOwner",
          "type": "address"
        },
        {
          "indexed": true,
          "internalType": "address",
          "name": "newOwner",
          "type": "address"
        }
      ],
      "name": "OwnershipTransferred",
      "type": "event"
    },
    {
      "anonymous": false,
      "inputs": [
        {
          "indexed": true,
          "internalType": "uint256",
          "name": "ticketNumber",
          "type": "uint256"
        },
        {
          "indexed": false,
          "internalType": "string",
          "name": "reply",
          "type": "string"
        },
        {
          "indexed": false,
          "internalType": "uint256",
          "name": "timestamp",
          "type": "uint256"
        }
      ],
      "name": "ReplyAdded",
      "type": "event"
    },
    {
      "inputs": [],
      "name": "deployer",
      "outputs": [
        {
          "internalType": "address",
          "name": "",
          "type": "address"
        }
      ],
      "stateMutability": "view",
      "type": "function"
    },
    {
      "inputs": [],
      "name": "getAllMessages",
      "outputs": [
        {
          "components": [
            {
              "internalType": "uint256",
              "name": "ticketNumber",
              "type": "uint256"
            },
            {
              "internalType": "address",
              "name": "sender",
              "type": "address"
            },
            {
              "internalType": "string",
              "name": "text",
              "type": "string"
            },
            {
              "internalType": "uint256",
              "name": "timestamp",
              "type": "uint256"
            },
            {
              "internalType": "string",
              "name": "reply",
              "type": "string"
            },
            {
              "internalType": "bool",
              "name": "hasReply",
              "type": "bool"
            },
            {
              "internalType": "uint256",
              "name": "replyTimestamp",
              "type": "uint256"
            }
          ],
          "internalType": "struct LettersToKoKoYe.Message[]",
          "name": "",
          "type": "tuple[]"
        }
      ],
      "stateMutability": "view",
      "type": "function"
    },
    {
      "inputs": [
        {
          "internalType": "uint256",
          "name": "ticketNumber",
          "type": "uint256"
        }
      ],
      "name": "getMessageByTicket",
      "outputs": [
        {
          "components": [
            {
              "internalType": "uint256",
              "name": "ticketNumber",
              "type": "uint256"
            },
            {
              "internalType": "address",
              "name": "sender",
              "type": "address"
            },
            {
              "internalType": "string",
              "name": "text",
              "type": "string"
            },
            {
              "internalType": "uint256",
              "name": "timestamp",
              "type": "uint256"
            },
            {
              "internalType": "string",
              "name": "reply",
              "type": "string"
            },
            {
              "internalType": "bool",
              "name": "hasReply",
              "type": "bool"
            },
            {
              "internalType": "uint256",
              "name": "replyTimestamp",
              "type": "uint256"
            }
          ],
          "internalType": "struct LettersToKoKoYe.Message",
          "name": "",
          "type": "tuple"
        }
      ],
      "stateMutability": "view",
      "type": "function"
    },
    {
      "inputs": [],
      "name": "getTotalMessages",
      "outputs": [
        {
          "internalType": "uint256",
          "name": "",
          "type": "uint256"
        }
      ],
      "stateMutability": "view",
      "type": "function"
    },
    {
      "inputs": [
        {
          "internalType": "address",
          "name": "wallet",
          "type": "address"
        }
      ],
      "name": "getWalletFirstTicket",
      "outputs": [
        {
          "internalType": "uint256",
          "name": "",
          "type": "uint256"
        }
      ],
      "stateMutability": "view",
      "type": "function"
    },
    {
      "inputs": [
        {
          "internalType": "address",
          "name": "wallet",
          "type": "address"
        }
      ],
      "name": "hasSentMessage",
      "outputs": [
        {
          "internalType": "bool",
          "name": "",
          "type": "bool"
        }
      ],
      "stateMutability": "view",
      "type": "function"
    },
    {
      "inputs": [],
      "name": "limitOnePerWallet",
      "outputs": [
        {
          "internalType": "bool",
          "name": "",
          "type": "bool"
        }
      ],
      "stateMutability": "view",
      "type": "function"
    },
    {
      "inputs": [],
      "name": "owner",
      "outputs": [
        {
          "internalType": "address",
          "name": "",
          "type": "address"
        }
      ],
      "stateMutability": "view",
      "type": "function"
    },
    {
      "inputs": [
        {
          "internalType": "uint256",
          "name": "ticketNumber",
          "type": "uint256"
        },
        {
          "internalType": "string",
          "name": "replyText",
          "type": "string"
        }
      ],
      "name": "replyToMessage",
      "outputs": [],
      "stateMutability": "nonpayable",
      "type": "function"
    },
    {
      "inputs": [
        {
          "internalType": "bool",
          "name": "_limit",
          "type": "bool"
        }
      ],
      "name": "toggleLimit",
      "outputs": [],
      "stateMutability": "nonpayable",
      "type": "function"
    },
    {
      "inputs": [
        {
          "internalType": "address",
          "name": "newOwner",
          "type": "address"
        }
      ],
      "name": "transferOwnership",
      "outputs": [],
      "stateMutability": "nonpayable",
      "type": "function"
    },
    {
      "inputs": [
        {
          "internalType": "string",
          "name": "text",
          "type": "string"
        }
      ],
      "name": "writeMessage",
      "outputs": [],
      "stateMutability": "nonpayable",
      "type": "function"
    }
  ],
  "bytecode": "0x608060405234801561001057600080fd5b5060018054600080546001600160a01b03191633908117825560ff60a01b19166001600160a81b0319909216919091179091556002556111c2806100556000396000f3fe608060405234801561001057600080fd5b50600436106100b45760003560e01c8063c5e7e15d11610071578063c5e7e15d14610169578063d5f394881461017c578063e20acfba1461018f578063ee72539e146101bb578063f2fde38b146101ce578063ffa023e7146101e157600080fd5b8063147e9108146100b95780632f024e51146100d057806353f5e380146100f45780638da5cb5b14610109578063b588bfad14610134578063bee9222e14610149575b600080fd5b6002545b6040519081526020015b60405180910390f35b6001546100e490600160a01b900460ff1681565b60405190151581526020016100c7565b6100fc61020a565b6040516100c79190610d1e565b60005461011c906001600160a01b031681565b6040516001600160a01b0390911681526020016100c7565b610147610142366004610dc9565b6103d6565b005b61015c610157366004610e0b565b61068a565b6040516100c79190610e24565b610147610177366004610e3e565b6108e9565b60015461011c906001600160a01b031681565b6100e461019d366004610e60565b6001600160a01b031660009081526004602052604090205460ff1690565b6101476101c9366004610e89565b6109a0565b6101476101dc366004610e60565b610b71565b6100bd6101ef366004610e60565b6001600160a01b031660009081526005602052604090205490565b60606003805480602002602001604051908101604052809291908181526020016000905b828210156103cd5760008481526020908190206040805160e081018252600786029092018054835260018101546001600160a01b0316938301939093526002830180549293929184019161028190610ed5565b80601f01602080910402602001604051908101604052809291908181526020018280546102ad90610ed5565b80156102fa5780601f106102cf576101008083540402835291602001916102fa565b820191906000526020600020905b8154815290600101906020018083116102dd57829003601f168201915b505050505081526020016003820154815260200160048201805461031d90610ed5565b80601f016020809104026020016040519081016040528092919081815260200182805461034990610ed5565b80156103965780601f1061036b57610100808354040283529160200191610396565b820191906000526020600020905b81548152906001019060200180831161037957829003601f168201915b5050509183525050600582015460ff161515602080830191909152600690920154604090910152908252600192909201910161022e565b50505050905090565b806104285760405162461bcd60e51b815260206004820152601760248201527f4d6573736167652063616e6e6f7420626520656d70747900000000000000000060448201526064015b60405180910390fd5b61011881111561046d5760405162461bcd60e51b815260206004820152601060248201526f4d65737361676520746f6f206c6f6e6760801b604482015260640161041f565b600154600160a01b900460ff16156104d8573360009081526004602052604090205460ff16156104d85760405162461bcd60e51b8152602060048201526016602482015275416c72656164792073656e742061206d65737361676560501b604482015260640161041f565b600280549060006104e883610f25565b90915550506002546040805160e081018252828152336020808301919091528251601f86018290048202810182018452858152600393830191879087908190840183828082843760009201829052509385525050426020808501919091526040805180830182528481528186015260608501849052608090940183905285546001808201885596845292819020855160079094020192835584015194820180546001600160a01b0319166001600160a01b0390961695909517909455908201519192509060028201906105bb9082610fa3565b5060608201516003820155608082015160048201906105da9082610fa3565b5060a08201516005808301805492151560ff1993841617905560c090930151600690920191909155336000908152600460209081526040808320805490941660011790935592909252812054900361063f573360009081526005602052604090208190555b336001600160a01b0316817f3dc84cee8ef4358ea7bde421497adbff34b9d113f2528aaa79f79eb2ea869af185854260405161067d93929190611063565b60405180910390a3505050565b6106d56040518060e001604052806000815260200160006001600160a01b03168152602001606081526020016000815260200160608152602001600015158152602001600081525090565b600182101580156106e857506002548211155b61072c5760405162461bcd60e51b815260206004820152601560248201527424b73b30b634b2103a34b1b5b2ba10373ab6b132b960591b604482015260640161041f565b600361073960018461109c565b81548110610749576107496110b5565b90600052602060002090600702016040518060e0016040529081600082015481526020016001820160009054906101000a90046001600160a01b03166001600160a01b03166001600160a01b031681526020016002820180546107ab90610ed5565b80601f01602080910402602001604051908101604052809291908181526020018280546107d790610ed5565b80156108245780601f106107f957610100808354040283529160200191610824565b820191906000526020600020905b81548152906001019060200180831161080757829003601f168201915b505050505081526020016003820154815260200160048201805461084790610ed5565b80601f016020809104026020016040519081016040528092919081815260200182805461087390610ed5565b80156108c05780601f10610895576101008083540402835291602001916108c0565b820191906000526020600020905b8154815290600101906020018083116108a357829003601f168201915b5050509183525050600582015460ff161515602082015260069091015460409091015292915050565b6000546001600160a01b031633148061090c57506001546001600160a01b031633145b6109495760405162461bcd60e51b815260206004820152600e60248201526d139bdd08185d5d1a1bdc9a5e995960921b604482015260640161041f565b60018054821515600160a01b0260ff60a01b199091161790556040517e5135c55f89333a1fbc0a31f869f7675f7e0a1f396b73cc885ec8c23a84a46c9061099590831515815260200190565b60405180910390a150565b6000546001600160a01b031633146109ea5760405162461bcd60e51b815260206004820152600d60248201526c2737ba103a34329037bbb732b960991b604482015260640161041f565b600183101580156109fd57506002548311155b610a415760405162461bcd60e51b815260206004820152601560248201527424b73b30b634b2103a34b1b5b2ba10373ab6b132b960591b604482015260640161041f565b80610a865760405162461bcd60e51b81526020600482015260156024820152745265706c792063616e6e6f7420626520656d70747960581b604482015260640161041f565b6000610a9360018561109c565b9050828260038381548110610aaa57610aaa6110b5565b90600052602060002090600702016004019182610ac89291906110cb565b50600160038281548110610ade57610ade6110b5565b906000526020600020906007020160050160006101000a81548160ff0219169083151502179055504260038281548110610b1a57610b1a6110b5565b906000526020600020906007020160060181905550837faabeb41ba2539de60130f46c3e2e5c9ade267924c1e2d061cfd7716c459a232d848442604051610b6393929190611063565b60405180910390a250505050565b6000546001600160a01b03163314610bbb5760405162461bcd60e51b815260206004820152600d60248201526c2737ba103a34329037bbb732b960991b604482015260640161041f565b6001600160a01b038116610c115760405162461bcd60e51b815260206004820181905260248201527f4e6577206f776e65722063616e6e6f74206265207a65726f2061646472657373604482015260640161041f565b600080546001600160a01b038381166001600160a01b0319831681178455604051919092169283917f8be0079c531659141344cd1fd0a4f28419497f9722a3daafe3b4186f6b6457e09190a35050565b6000815180845260005b81811015610c8757602081850181015186830182015201610c6b565b506000602082860101526020601f19601f83011685010191505092915050565b8051825260018060a01b0360208201511660208301526000604082015160e06040850152610cd860e0850182610c61565b90506060830151606085015260808301518482036080860152610cfb8282610c61565b91505060a0830151151560a085015260c083015160c08501528091505092915050565b6000602080830181845280855180835260408601915060408160051b870101925083870160005b82811015610d7357603f19888603018452610d61858351610ca7565b94509285019290850190600101610d45565b5092979650505050505050565b60008083601f840112610d9257600080fd5b50813567ffffffffffffffff811115610daa57600080fd5b602083019150836020828501011115610dc257600080fd5b9250929050565b60008060208385031215610ddc57600080fd5b823567ffffffffffffffff811115610df357600080fd5b610dff85828601610d80565b90969095509350505050565b600060208284031215610e1d57600080fd5b5035919050565b602081526000610e376020830184610ca7565b9392505050565b600060208284031215610e5057600080fd5b81358015158114610e3757600080fd5b600060208284031215610e7257600080fd5b81356001600160a01b0381168114610e3757600080fd5b600080600060408486031215610e9e57600080fd5b83359250602084013567ffffffffffffffff811115610ebc57600080fd5b610ec886828701610d80565b9497909650939450505050565b600181811c90821680610ee957607f821691505b602082108103610f0957634e487b7160e01b600052602260045260246000fd5b50919050565b634e487b7160e01b600052601160045260246000fd5b600060018201610f3757610f37610f0f565b5060010190565b634e487b7160e01b600052604160045260246000fd5b601f821115610f9e57600081815260208120601f850160051c81016020861015610f7b5750805b601f850160051c820191505b81811015610f9a57828155600101610f87565b5050505b505050565b815167ffffffffffffffff811115610fbd57610fbd610f3e565b610fd181610fcb8454610ed5565b84610f54565b602080601f8311600181146110065760008415610fee5750858301515b600019600386901b1c1916600185901b178555610f9a565b600085815260208120601f198616915b8281101561103557888601518255948401946001909101908401611016565b50858210156110535787850151600019600388901b60f8161c191681555b5050505050600190811b01905550565b604081528260408201528284606083013760006060848301015260006060601f19601f8601168301019050826020830152949350505050565b818103818111156110af576110af610f0f565b92915050565b634e487b7160e01b600052603260045260246000fd5b67ffffffffffffffff8311156110e3576110e3610f3e565b6110f7836110f18354610ed5565b83610f54565b6000601f84116001811461112b57600085156111135750838201355b600019600387901b1c1916600186901b178355611185565b600083815260209020601f19861690835b8281101561115c578685013582556020948501946001909201910161113c565b50868210156111795760001960f88860031b161c19848701351681555b505060018560011b0183555b505050505056fea2646970667358221220c375dcd4e02b14a6ec371122ec620a407e4041cf6d9ef2508a60305302390a4a64736f6c63430008140033",
  "linkReferences": {},
  "deployedLinkReferences": {}
}